:020000040800F2
:10000000000002206909000865090008C5530008BE
:10001000650900086509000865090008000000007E
:10002000000000000000000000000000650900085A
:100030006509000800000000650900084953000830
:1000400065090008650900086509000865090008D8
:1000500065090008650900086509000865090008C8
:100060006509000865090008650900087141000874
:100070007D410008C9300008894100089541000809
:10008000495000089D360008650900086509000808
:100090006509000865090008650900086509000888
:1000A0006509000865090008650900086509000878
:1000B000A5050108B1050108BD050108D1360008F4
:1000C00065090008DD3600086509000815FE00080E
:1000D00021FE00087D4E0008AD4E0008E14E0008EC
:1000E00065090008650900080000000065090008AE
:1000F0006509000865090008650900086509000828
:100100006509000865090008C90501082DFE0008F9
:10011000154F0008494F00086509000865090008E7
:10012000650900086509000851FE000885FE000801
:100130007D50000865090008650900086509000888
:1001400000000000000000000000000000000000AF
:100150006509000865090008650900087D4F000869
:10016000E936000865090008595300087D53000866
:1001700065090008A1530008650900086509000821
:100180006509000865090008B14F0008E14F000843
:1001900039FE000845FE00086509000865090008E9
:1001A0006509000865090008650900086509000877
:1001B000913E000865090008650900086509000806
:1001C0006509000865090008650900086509000857
:1001D0006509000865090008650900086509000847
:1001E0006509000865090008650900086509000837
:1001F0006509000865090008650900086509000827
:100200006509000865090008650900086509000816
:100210006509000865090008650900086509000806
:10022000650900086509000865090008000000006C
:10023000650900086509000800000000650900085C
:1002400065090008650900086509000865090008D6
:1002500065090008650900086509000865090008C6
:1002600065090008650900086509000865090008B6
:100270006509000865090008155000080000000025
:10028000650900086509000865090008000000000C
:080290000000000065090008F0
:1002980010B5054C237833B9044B13B10448AFF3B8
:1002A80000800123237010BDE80300240000000033
:1002B800D44D010808B5034B1BB103490348AFF3FC
:1002C800008008BD00000000EC030024D44D0108A4
:1002D800034613F8012B002AFBD1181A013870477E
:1002E80081F0004102E000BF83F0004330B54FEADF
:1002F80041044FEA430594EA050F08BF90EA020F4C
:100308001FBF54EA000C55EA020C7FEA645C7FEADE
:10031800655C00F0E2804FEA5454D4EB5555B8BF01
:100328006D420CDD2C4480EA020281EA030382EA72
:10033800000083EA010180EA020281EA0303362D04
:1003480088BF30BD11F0004F4FEA01314FF4801CD7
:100358004CEA113102D0404261EB410113F0004FE9
:100368004FEA03334CEA133302D0524263EB4303A0
:1003780094EA050F00F0A780A4F10104D5F1200E3E
:100388000DDB02FA0EFC22FA05F2801841F1000199
:1003980003FA0EF2801843FA05F359410EE0A5F16D
:1003A80020050EF1200E012A03FA0EFC28BF4CF09E
:1003B800020C43FA05F3C01851EBE37101F0004554
:1003C80007D54FF0000EDCF1000C7EEB00006EEB61
:1003D8000101B1F5801F1BD3B1F5001F0CD34908EB
:1003E8005FEA30004FEA3C0C04F101044FEA445242
:1003F80012F5800F80F09A80BCF1004F08BF5FEAC9
:10040800500C50F1000041EB045141EA050130BDA8
:100418005FEA4C0C404141EB0101013C28BFB1F5BA
:10042800801FE9D291F0000F04BF01460020B1FA05
:1004380081F308BF2033A3F10B03B3F120020CDAD8
:100448000C3208DD02F1140CC2F10C0201FA0CF0B6
:1004580021FA02F10CE002F11402D8BFC2F1200C1B
:1004680001FA02F120FA0CFCDCBF41EA0C019040D1
:10047800E41AA2BF01EB0451294330BD6FEA04041A
:100488001F3C1CDA0C340EDC04F11404C4F1200205
:1004980020FA04F001FA02F340EA030021FA04F317
:1004A80045EA030130BDC4F10C04C4F1200220FA6E
:1004B80002F001FA04F340EA0300294630BD21FAAC
:1004C80004F0294630BD94F0000F83F4801306BF72
:1004D80081F480110134013D4EE77FEA645C18BF66
:1004E8007FEA655C29D094EA050F08BF90EA020FFD
:1004F80005D054EA000C04BF1946104630BD91EAF5
:10050800030F1EBF0021002030BD5FEA545C05D1F7
:100518004000494128BF41F0004130BD14F5800436
:100528003CBF01F5801130BD01F0004545F0FE41AA
:1005380041F470014FF0000030BD7FEA645C1ABFDF
:10054800194610467FEA655C1CBF0B46024650EA16
:10055800013406BF52EA033591EA030F41F4002142
:1005680030BD00BF90F0000F04BF0021704730B5C8
:100578004FF4806404F132044FF000054FF000019D
:1005880050E700BF90F0000F04BF0021704730B55E
:100598004FF4806404F1320410F0004548BF404233
:1005A8004FF000013EE700BF42004FEAE2014FEA88
:1005B80031014FEA02701FBF12F07F4393F07F4F63
:1005C80081F06051704732F07F4208BF704793F066
:1005D8007F4F04BF41F40021704730B54FF4607479
:1005E80001F0004521F000411CE700BF50EA01027C
:1005F80008BF704730B54FF000050AE050EA010225
:1006080008BF704730B511F0004502D5404261EB94
:1006180041014FF4806404F132045FEA915C3FF4D5
:10062800D8AE4FF003025FEADC0C18BF03325FEA72
:10063800DC0C18BF033202EBDC02C2F1200300FA23
:1006480003FC20FA02F001FA03FE40EA0E0021FA48
:1006580002F11444BDE600BF53B94AB9002908BFE6
:1006680000281CBF4FF0FF314FF0FF3000F074B985
:10067800ADF1080C6DE904CE00F006F8DDF804E0F1
:10068800DDE9022304B070472DE9F047089D0446D0
:100698008E46002B4DD18A42944669D9B2FA82F22D
:1006A80052B101FA02F3C2F1200120FA01F10CFA69
:1006B80002FC41EA030E94404FEA1C48210CBEFBA1
:1006C800F8F61FFA8CF708FB16E341EA034306FB2A
:1006D80007F199420AD91CEB030306F1FF3080F0B9
:1006E8001F81994240F21C81023E63445B1AA4B206
:1006F800B3FBF8F008FB103344EA034400FB07F7A8
:10070800A7420AD91CEB040400F1FF3380F00A81E8
:10071800A74240F207816444023840EA0640E41BDD
:1007280000261DB1D4400023C5E900433146BDE889
:10073800F0878B4209D9002D00F0EF800026C5E92B
:10074800000130463146BDE8F087B3FA83F6002E43
:100758004AD18B4202D3824200F2F980841A61EBBB
:10076800030301209E46002DE0D0C5E9004EDDE7D9
:1007780002B9FFDEB2FA82F2002A40F09280A1EBC1
:100788000C014FEA1C471FFA8CFE0126200CB1FB16
:10079800F7F307FB131140EA01410EFB03F088420F
:1007A80008D91CEB010103F1FF3802D2884200F29C
:1007B800CB804346091AA4B2B1FBF7F007FB10112E
:1007C80044EA01440EFB00FEA64508D91CEB0404CC
:1007D80000F1FF3102D2A64500F2BB800846A4EB27
:1007E8000E0440EA03409CE7C6F12007B34022FA12
:1007F80007FC4CEA030C20FA07F401FA06F31C4341
:10080800F9404FEA1C4900FA06F3B1FBF9F8200C4D
:100818001FFA8CFE09FB181140EA014108FB0EF093
:10082800884202FA06F20BD91CEB010108F1FF3AE3
:1008380080F08880884240F28580A8F102086144EF
:10084800091AA4B2B1FBF9F009FB101144EA0141FD
:1008580000FB0EFE8E4508D91CEB010100F1FF34A8
:100868006CD28E456AD90238614440EA0840A0FB40
:100878000294A1EB0E01A142C846A64656D353D016
:100888005DB1B3EB080261EB0E0101FA07F722FA3A
:1008980006F3F1401F43C5E9007100263146BDE863
:1008A800F087C2F12003D8400CFA02FC21FA03F3C6
:1008B800914001434FEA1C471FFA8CFEB3FBF7F047
:1008C80007FB10360B0C43EA064300FB0EF69E426C
:1008D80004FA02F408D91CEB030300F1FF382FD205
:1008E8009E422DD9023863449B1B89B2B3FBF7F6AD
:1008F80007FB163341EA034106FB0EF38B4208D986
:100908001CEB010106F1FF3816D28B4214D9023EC6
:100918006144C91A46EA004638E72E46284605E7E4
:100928000646E3E61846F8E64B45A9D2B9EB0208B5
:1009380064EB0C0E0138A3E74646EAE7204694E745
:100948004046D1E7D0467BE7023B614432E7304678
:1009580009E76444023842E7704700BFFEE700BF7A
:100968000B480C4A904203D0121A0B4912F078F83F
:100978000A480B4A904203D0121A002112F07EF85E
:1009880004F046FF12F030F800F0F6F8FEE700BF7A
:1009980000000024E8030024044E0108E8030024B2
:1009A80064E50024704700BF704700BF704700BF70
:1009B800704700BF704700BF30B5104B87B0044682
:1009C800072202AD93E80300CDE900520B0C002288
:1009D80002902046ADF80C1069468DF80F208DF86E
:1009E8000E3011F075F90098A84203D00299013130
:1009F80011F029F9204607B030BD00BF302D01089D
:100A080030B51E4D89B0DFED1E0A05F1640EEC46C7
:100A18009FED1C0A1C4CBEE80F00ACE80F009EE8D6
:100A28000F008CE80F0069460022184801F0D0FF3B
:100A3800284600F025FBF7EE006AF0EE407A4FF00A
:100A48007C53134900229FED130A204686EEA77AAD
:100A58006360E360E261C4ED057A84ED020A216116
:100A680084ED067A11F0DEF8002240F2011384EDDD
:100A7800080A2270A38509B030BD00BF0C04002409
:100A88002EFFCF40E5F2FFBEA09B00244496002431
:100A9800DB0F49400000C8429FED2D1A2D48F0EEAB
:100AA800410AB0EE410A70B588B02B4C04F0FAFF49
:100AB800DFED270AB7EE001A2848B0EE600A0025D5
:100AC80004F0F0FF9FED261A9FED210A04F2BC46C0
:100AD800F0EE410A234804F0E5FFB6EE001A22487A
:100AE800F0EE410AB0EE410A04F0DCFF07EE905A3E
:100AF80020460C349FED161AB8EEE70B0135B7EE19
:100B0800007B9FED116B20EE060B37EE407BB7EEB6
:100B1800C00BF7EEC70B04F0C5FFB442E6D1134D86
:100B28006C46DFED130A9FED0A0A0FCD0FC495E856
:100B38000F0084E80F00002269460E4801F048FFC4
:100B480008B070BDAFF300807B14AE47E17A843FF4
:100B580000000000B4960024E4960024C096002407
:100B68001F852B3FCC960024D8960024900400249F
:100B78000000C8427C96002408B500210B4800F00C
:100B88004FFB0421094800F04FFA0321074800F001
:100B980061FA064800F076FA0549044800F042FA7E
:100BA800FFF77AFFFFF72CFFFEE700BF0C040024D5
:100BB800B90E00080C4A92F8403003B1136E0B4985
:100BC80008681B180DD4032BC8BF00230B6092F8CC
:100BD80048302BB192F84E307F2B01D100230B60A7
:100BE800704703230B60F2E70C040024040400247C
:100BF800144A154B126802EB420230B503EB82032C
:100C080085B0124D01AC93E8070084E8070021463F
:100C1800284601F08BFF0E4A0E4B126802EB420287
:100C280003EB820393E8070084E8070005F154000A
:100C3800214601F07BFFA5F1D40005B0BDE83040A6
:100C480000F040BA04040024B4960024E004002410
:100C580008040024E496002400F5637C014610B5DE
:100C68000C6851F8042F04F0004422F00042D1F837
:100C78003036224383EA5203D20705D583F019435D
:100C880083F40B2383F0DF038C4541F8043CE7D160
:100C9800011F00F22C6ED1E9E42451F8043F24F03E
:100CA800004C02F0004242EA0C02D40783EA5203E5
:100CB80005D583F0194383F40B2383F0DF038E45B6
:100CC800C1F88C33E7D1D0F8BC29016802F00042A2
:100CD800D0F8303621F000410A4383EA5203D207A4
:100CE80005D583F0194383F40B2383F0DF03002237
:100CF800C0F8BC39C0F8C02910BD00BFF8B5D1E9AB
:100D080000270C460646BF1A7B1C2AD001374FF035
:100D1800FF33D0F8C029B3FBF7F505FB07F712E05E
:100D280056F8223001321E4983EAD3231D48C6F8FB
:100D3800C02901EAC3114B4000EAC330434083EAAB
:100D480093439F4208D8B2F51C7FE9D33046FFF79A
:100D580083FFD6F8C029E3E7B3FBF5F322689818B8
:100D6800F8BDD0F8C019B1F51C7F12D256F8213061
:100D780001310B4883EAD323C6F8C01900EAC3112E
:100D880008484B4000EAC330434083EA934398182D
:100D9800F8BDFFF761FFD6F8C0192268E6E700BF83
:100DA80080562C9D0000C6EF70B53B483B4C3C4D2F
:100DB8002DED028B82B001F03BFEB8FE400AFDEE3D
:100DC800C07A4FF07C5395F8C0206360CDED017A6E
:100DD8009DF80430082B28BF002323701AB195F81A
:100DE800C6307F2B33D02F4E95F8B0301BB195F815
:100DF800B6307F2B0CD096ED000A284884ED020A05
:100E080010F010FF84ED080A02B0BDEC028B70BD33
:100E180025492648FFF772FF06EE900A96ED008AEC
:100E2800B0EE000BB8EEE61BB7EEC88A9FED187B54
:100E380021EE071BB7EEC11BB7EEC11A10F090FFE9
:100E480088EE007BB7EEC70B86ED000AD5E716499A
:100E58001648FFF753FF06EE900A124EB0EE000B4D
:100E6800B8EEE61B96ED008A9FED097BB7EEC88ABF
:100E780021EE071BB7EEC11BB7EEC11A10F070FFC9
:100E880028EE000BB7EEC00B86ED000AACE700BFFA
:100E9800F792C6681D55B53F44960024A09B0024D0
:100EA8000C0400240400002458AF002494A5002456
:100EB8002DE9F8431A4890460F4600F0E7F818481D
:100EC80000F0F0F8FFF776FE164801F0B1FDBDEE30
:100ED800C00A154B83ED000AFFF78AFEFFF764FF8F
:100EE8000F4800F0D3F80E4800F0DCF8B8F1000F16
:100EF80013D03D6800240D4805EB840910F0B0FCC0
:100F0800A6000134D7E90053A04589ED000A05EB96
:100F18000602334411681960EDD1BDE8F88300BFBB
:100F28000C0400247C96002408040024A09B0024C0
:100F380070B52C482C4DFFF73FFD2A4810F0ECFE09
:100F480001232A46286080EA9070284901FB003076
:100F58000133B3F51C7F42F8040FF4D12448012172
:100F6800244E0024244AC5F8C03900F510433160E6
:100F780011889288C3F82442A3F82A221F4AC3F88A
:100F88002C42C3F830224FF60F02A3F82812A3F818
:100F9800342207221A4983F836220C23194A04609E
:100FA80044610462C0F87C41736010F047FE154A42
:100FB8001549164810F042FE124A1549154810F016
:100FC8003DFE104A1249144810F038FE0D4A1349E4
:100FD800204610F033FE20460A4A1149BDE8704009
:100FE80010F02CBED09B002494A500246589076CC2
:100FF8000C04002458AF0024EC2C010880707FF00A
:10100800B109000800000024B5090008A09B0024CD
:10101800AD090008449600247C960024B90900080C
:10102800BD09000800F0A0B938B5044600F0C0F9C1
:10103800D4F8A450204600F0D7F9284601F02EFC39
:10104800D4F8A850204600F0CFF92846BDE838402B
:1010580001F024BC38B5044600F08AF9D4F8A4504D
:10106800204600F0C1F9284601F018FCD4F8A85031
:10107800204600F0B9F92846BDE8384001F00EBC1A
:1010880000F092B9183001F0AFBF00BF10B50446A8
:10109800643001F0DFFB04F18400BDE8104001F08A
:1010A800D9BB00BF10B504463C3001F053FC04F135
:1010B800AC0001F079FD04F1BC00BDE8104001F07E
:1010C80073BD00BF10B50446D43001F045FD04F5EA
:1010D8009470BDE8104001F03FBD00BFF0B5044674
:1010E8008DB01420012500F029F90346132004F1DE
:1010F800D407ADF80C3000F021F90346122004F5AE
:10110800947406AEADF8103000F018F90399ADF8F4
:10111800140038460095DDE9042301F0DFFC1120B6
:1011280000F00CF903461820ADF80C3000F006F971
:10113800ADF81000172000F001F9ADF81400059B78
:101148002046049A0399009509AD01F0C7FC304682
:10115800072104F097FC96E8070085E80700294670
:10116800384601F0E3FC96E8070085E807002946C1
:10117800204601F0DBFC384601F0EEFC20460DB0BD
:10118800BDE8F04001F0E8BC2DE9F0410446152027
:10119800002504F1180704F1A4062DED028B8EB08A
:1011A8009FED1E8A00F0CAF8034605A8ADF80C307A
:1011B800039901F027FD0F2000F0C0F803460DF158
:1011C8002500ADF81030049901F01CFD042302221B
:1011D80005A9384601F024FD04F1640204F18403F2
:1011E800C4E929232946384656F8048B01F012FF32
:1011F80001462046019100F0F7F80023F0EE480A76
:10120800019940461A4601F0F3FA25B10EB0BDEC3B
:10121800028BBDE8F0810125E4E700BF6F12033BB4
:1012280070B59FED420A8EB004468DED010A00911B
:1012380000F082F80099204600F042F91B2000F0E7
:101248007DF8034604F1AC069DED010AADF81430B3
:1012580004F1BC05059930468DED000A01F08AFCC1
:101268001C2000F06BF8ADF818009DED000A284628
:10127800069901F07FFC1A20C4E9336500F05EF896
:10128800034619200025ADF80C3000F057F8034646
:101298000D2004F51046ADF8103000F04FF8ADF809
:1012A8001C0004F13C009DED000A049A0399079B79
:1012B80001F020FB2046FFF711FF2046FFF764FFEF
:1012C80001231B4A49F22C20099307A90C9347F6DE
:1012D800122320440A950D93022308950B93154B6E
:1012E800C6E98952079303F0EBFE0A23C6F81852A1
:1012F8003021C6F81452204684F8843184F880518D
:1013080000F056F8D4F8A450204600F06DF82846AE
:1013180001F0C4FAD4F8A850204600F065F8284631
:101328000EB0BDE8704001F0B9BA00BF000000007F
:101338000107010601060107704700BF202882B097
:1013480009D8084B03EB400213F81030507843EAF1
:10135800002002B0704701230C2043EA002002B0AD
:10136800704700BF382D0108143001F00DBA00BFD6
:1013780038B500F1140504462DED028B284601F01E
:10138800BFF9284601F0B8F92846B0EE408A01F0C6
:10139800A1F9D0ED007AF8EE677A88EE277ABDECED
:1013A800028B84ED0E7A38BD143001F0A5B900BF68
:1013B80038B500F1140504462DED028B284601F0DE
:1013C8008DF9284601F098F92846B0EE408A01F0D8
:1013D80081F9D0ED007AF8EE677A88EE277ABDECCD
:1013E800028B84ED0E7A38BD90ED0E0A704700BF6F
:1013F800F0B5032399B000270125129306462C4B1C
:1014080009A81595CDE90E7340F20453ADF84030A4
:10141800284BCDE91357099301F0FEFE09A801F006
:10142800D7FF002836D1244B04AF04460090CDF8EE
:1014380042301023394604958DF820301F4BCDE9F2
:101448001650CDE906506846059302F04FF9082377
:10145800009A01A909A8ADF804508DF8064009942E
:101468000295039300F0E4F800230EA938463024CF
:10147800049302F005FF03224FF07E5309A906F1F9
:1014880014000B930C93CDE90942049A01F0EAF891
:1014980019B0F0BD40F60132074B169704AFADF80E
:1014A80024200998CDF84230179500F081F8DBE741
:1014B8000402040403030001040604030704010BE7
:1014C8002DE9F04304462DED028B83B0002948D066
:1014D800012140F2011200230091ADF804208DF89B
:1014E8000630304A0126304B271D304904F12908BF
:1014F800626040F20272A36040F60663E16004F1A4
:1015080025092682A4F8252084F82760A4F8293024
:1015180084F82B6004F032F96946054648B304F1B3
:1015280030008DF8066004F087F8072D34D104F1F7
:1015380014052046FFF75CFF284601F0DDF8284631
:10154800B0EE408A01F0C6F8D0ED007AF8EE677A7E
:1015580088EE277A84ED0E7A03B0BDEC028BBDE8E5
:10156800F08340F2011300918DF80610ADF80430B5
:10157800B7E704F1300004F05FF83946204602F07E
:10158800FFFA484601F048FE404601F045FE04F1E6
:10159800120000F077F9CAE73946204602F0F0FA5F
:1015A800C5E700BF0508050905070506050A06067B
:1015B80010B584B003460124ADF8040003A8ADF8C3
:1015C8000C30ADF80E4001F027FE214603A801F0CB
:1015D8000DFF204603F064FF002103A801F006FF79
:1015E800204603F05DFF214603A801F0FFFE04B08A
:1015F80010BD00BF10B5C2F3002384B00C46017CB7
:101608008DF80D2043EA4402FA2402238DF80C20B9
:1016180003AA009402F000F918B10124204604B08E
:1016280010BD04460A2003F03BFF204604B010BD5D
:10163800034670B543F8042B044684B007C983E811
:101648000700A37983B91A210B461E22FA252374B1
:101658002046ADF80C20022303AA009502F0DCF81E
:1016680028B1012004B070BD1B210B46EDE70A200C
:1016780003F016FF4FF4B85200950223ADF80C2082
:10168800204603AA217C02F0C7F80028E9D10A20E5
:1016980003F006FF41F2027200950223ADF80C2018
:1016A800204603AA217C02F0B7F80028D9D10A20E5
:1016B80003F0F6FE042200950223ADF80C20204624
:1016C80003AA217C02F0A8F80028CAD10A2003F056
:1016D800E7FE062200950223ADF80C20204603AA57
:1016E800217C02F099F80028BBD10A2003F0D8FE2B
:1016F80041F2082200950223ADF80C20204603AAE7
:10170800217C02F089F80028ABD10A20064603F0B4
:10171800C7FE0095022303AA217C2046ADF80C6081
:1017280002F07AF800289CD1304603F0B9FE009503
:1017380022790C232046002A8DF80C3003AA4FF09A
:10174800020314BF622142218DF80D10217C02F0A2
:1017580063F8002885D1304603F0A2FE2279D4E947
:1017680002310B43DBB20AB943F0400362790AB194
:1017780043F020030E22FA258DF80D3020460095FF
:1017880002238DF80C2003AA217C02F045F80028DA
:101798007FF467AF0A2003F083FE1022009502232E
:1017A800ADF80C20204603AA217C02F035F8002869
:1017B8007FF457AF0A2003F073FE1221009502232D
:1017C800ADF80C1003AA217C204602F025F8002869
:1017D8007FF447AF0A2003F063FE01220921204667
:1017E800FFF708FF003818BF01203BE7F0B51023CA
:1017F80087B0234C012200250126002702A9204694
:101808000195CDE902234FF48052CDE904670AF02F
:1018180085FD642004F070FA02A94FF48052204636
:10182800CDE9046702261027CDE902670AF076FDA4
:101838000322102302A92046CDE902230023042213
:10184800CDE904234FF480520AF068FD40F23223B8
:10185800042202A9019310232046CDE90223019A0C
:10186800012305924FF4805204930AF057FD40F685
:10187800060120460AF072FD284607B0F0BD00BFF9
:1018880068AF00241C4B00221C494FF0400C30B5B7
:10189800054689B00220596007219A601A6201241E
:1018A800DA620A224FF4006EDC6006922022CDE94B
:1018B800000104200821CDE9020103201021CDE90F
:1018C800040108206946C3E904024FF4C072181DD8
:1018D800C3E906C24FF48052C3E909E20AF0F4FCF6
:1018E80038B92846FFF782FF003818BF012009B031
:1018F80030BD204609B030BD64AF002440410052DD
:10190800614A0021D0B513688EB00A91002B40F0CF
:10191800B9805E4B01214FF683700C2411600221BF
:10192800D3F8D4200026032742F48052C3F8D420E9
:10193800D3F8D42002F480520092009AD3F8E02021
:1019480042F01002C3F8E020D3F8E02002F01002C1
:101958000192019AD3F8E02042F04002C3F8E02057
:10196800D3F8E02002F040020292029AD3F8E02075
:1019780042F00802C3F8E020D3F8E02002F00802A1
:101988000392039AD3F8E02042F48072C3F8E0206F
:10199800D3F8E02002F480720492049AD3F8E0208D
:1019A80042F08002C3F8E020D3F8E02002F0800281
:1019B8000592059AD3F8E02042F02002C3F8E0200F
:1019C800D3F8E02002F020020692069AD3F8E0202D
:1019D80042F00402C3F8E020D3F8E0300C9403F09E
:1019E800040307930323079A0B93CDE9080108A979
:1019F800274806F007F848F23712022308A92548B5
:101A08000C94CDE90823CDE90A6705F0FBFF4CF2F9
:101A18000372022308A920480C94CDE90823CDE9D4
:101A28000A6705F0EFFF40F2FF62022308A91B488E
:101A38000C94CDE90823CDE90A6705F0E3FF4FF6DA
:101A48000C72022308A916480C94CDE90823CDE9A5
:101A58000A6705F0D7FF4FF63F02022308A911488D
:101A68000C94CDE90823CDE90A6705F0CBFF2022C5
:101A7800022308A90A480C94CDE90A67CDE908238E
:101A880005F0C0FF0EB0D0BD60AF0024004402587E
:101A98000010025800180258000C02580020025882
:101AA800001C0258001402582DE9F04FDFF810848A
:101AB80006460D46144608F118002DED028B89B034
:101AC80000AF02F0D5FCD8F8183073B3D8F81C3042
:101AD800D8F80490002B43690BBF4FF0080A4FF069
:101AE800100A4FF0020B4FF0040BB9F1000F2AD087
:101AF800A200EA46012B02F1070222F00702ADEB31
:101B0800020D6846ADEB020D694600F03F81022BDD
:101B180000F0D680002B6FD02246C847D546243720
:101B2800BD46BDEC028BBDE8F08FD8F81C30002B09
:101B3800F5D0D8F804904FF0080A4FF0020B43692B
:101B4800B9F1000FD4D1FB61D8F80030BB61002B8C
:101B5800E5D0D54802F0FEFC6B46BBF1020F786178
:101B680008EE103AFB6900F083816A465146A2EB01
:101B7800C40295466200EA46B2FBFBF2AAEBC40037
:101B880085460AEB8200EE46F861ADEB010DF86977
:101B98000EEB820CC7F810C0EC46ADEB010D00EB64
:101BA8008201CCF80400CCF8081001EB82013869F6
:101BB800E946CCF80C1000EB8201CCF800A001EB50
:101BC8008202C9E900E0C9E90212012B00F064832E
:101BD800022B00F06C82002B00F0808162084946DD
:101BE8006046BB69984718EE103A24379D46BD46B3
:101BF800BDEC028BBDE8F08F002C8DD01A46D8EDD5
:101C08000C6A9FEDB27A8446331D36F922E00CF156
:101C1800080C07EE90EA33F922E00232F8EEE77A90
:101C2800944267EE877A67EEA67A4CED027A07EE61
:101C380090EAF8EEE77A67EE877A67EEA67A4CEDD7
:101C4800017AE2D8F9612246C847984ED8ED0D6A64
:101C58000020F9692B1D9FED9E7A9FED9E6ADFEDAE
:101C68009E5A22E0F4EEC67AF1EE10FAC0F2C88469
:101C780047F6FE72D1ED017A45F8202066EEA77A84
:101C8800F4EEC77AF1EE10FA40F2F080F4EEC67A7C
:101C9800F1EE10FAC0F2D58447F6FE7243F8202020
:101CA8000230083184427FF639AFD1ED007A66EE12
:101CB800A77AF4EEC77AF1EE10FAD3D83246D9E70C
:101CC800002C3FF429AFD8ED0C6A84469FED787A52
:101CD8000022331D8E4656F822100CF1080C07EE30
:101CE800901A53F822100232F8EEE77A944267EE1F
:101CF800877A67EEA67A4CED027A07EE901AF8EE2C
:101D0800E77A67EE877A67EEA67A4CED017AE2D831
:101D180071462246C7F81CE0C847664ED8ED0D6AE2
:101D28000020F9692B1D9FED6A7A9FED6A6ADFF83A
:101D380094C120E0F4EEC67AF1EE10FAC0F279848C
:101D48003246D1ED017A45F8202066EEA77AF4EE06
:101D5800C77AF1EE10FA40F28780F4EEC67AF1EE17
:101D680010FAC0F25E84324643F82020023008316F
:101D780084427FF6D3AED1ED007A66EEA77AF4EE10
:101D8800C77AF1EE10FAD5D86246DAE7002C3FF4AC
:101D9800C3AED8ED0C6A86469FED477A4FF0000C2B
:101DA800331D56F82C200EF1080E82F40002A2F51D
:101DB800000207EE902A53F82C200CF1020CF8EEE2
:101DC800E77A82F400026445A2F5000267EE877A9A
:101DD80067EEA67A4EED027A07EE902AF8EEE77AD9
:101DE80067EE877A67EEA67A4EED017AD9D8F9615F
:101DF8002246C847314ED8ED0D6A0020F9692B1DDF
:101E08009FED337A9FED336ADFF8BCC01FE0F4EE34
:101E1800C67AF1EE10FAC0F2FC833246D1ED017AAF
:101E280045F8202066EEA77AF4EEC77AF1EE10FAAC
:101E380018D9F4EEC67AF1EE10FAC0F2DA83324617
:101E480043F820200230083184427FF667AED1ED96
:101E5800007A66EEA77AF4EEC77AF1EE10FAD6D8D1
:101E68006246DBE76246EBE762467DE7324615E706
:101E7800A100D6466208073121F00701ADEB010D3C
:101E8800EA46ADEB010D6946ADEB0E0D0AEB82009B
:101E9800EC46ADEB0E0D01EB8202F861E946CCE9A8
:101EA80000A0C9E9001290E6B8AF00240280FFFF45
:101EB800000000300082FF7F0000003482FF7F00B6
:101EC8009CAF0024007E00807E0080FF0000003868
:101ED80004FF7FBF04FF7F3F00FEFF46002C00F099
:101EE800C982BBF1020FD8F8242000F0FA82796980
:101EF800C7F8049002EB810E5FED0C5A8A00DCF8FB
:101F080008100EF104007A611A46DCF80C303B61C7
:101F1800331DD7F810903D61FD69C7E902CB8C46A7
:101F2800834636F92210D8ED0C7A06EE101A33F9EA
:101F3800221006EE901A3EF92210B8EEC66A07EE95
:101F4800101AF8EEE66A3BF92210B8EEC77A26EEC8
:101F5800256A66EEA56A27EE257A26EE276A66EEDA
:101F6800A76A27EE277A07EE901A51080232F8EE90
:101F7800E77A0AEB8100944280ED006A05EB810064
:101F880067EEA57AC0ED006A0CEB810009EB8101D0
:101F980080ED007A98ED0C7A67EE877AC1ED007AC9
:101FA800BFD8D7F804903D69D7E902CB60466208EC
:101FB800BB6949469847D8F82C307A69D8ED0D6A3C
:101FC8001A441FED3D7A1FED3D6A2B1D904602F124
:101FD800040A5FED3F5A0022A84ED9E900EC51E00F
:101FE800F4EEC67AF1EE10FAC0F2C78247F6FE7038
:101FF80045F822000CEB0100D0ED007A66EEA77AD6
:10200800F4EEC77AF1EE10FA4BD9F4EEC67AF1EE97
:1020180010FAC0F2BA8247F6FE70BBF1020F43F81D
:1020280022002BD0D9F808000844D0ED007A66EEDB
:10203800A77AF4EEC77AF1EE10FA36D9F4EEC67A3A
:10204800F1EE10FAC0F2CD8247F6FE7048F8220091
:10205800D9F80C000144D1ED007A66EEA77AF4EEC7
:10206800C77AF1EE10FA1ED9F4EEC67AF1EE10FA3C
:10207800C0F2AF8247F6FE714AF82210023294424B
:102088007FF6B1AD51080EEB81008900D0ED007AE2
:1020980066EEA77AF4EEC77AF1EE10FAA0D83046C9
:1020A800A6E73046B9E73146E6E73046CEE7002CEA
:1020B80000F0E081BBF1020FD8F8243000F0E18194
:1020C8007A69DCF8081003EB820EC7F804909300D5
:1020D800DFED6B5A0EF1040000227B61DCF80C3056
:1020E8003B61331DD7F810903D61FD69C7E902CB0C
:1020F8008C46834656F82210D8ED0C7A07EE101A53
:1021080053F82210B8EEC76A07EE101A5EF82210CC
:10211800F8EEC76A07EE101A26EE256A5BF8221059
:10212800B8EEC77A66EEA56A26EE276A27EE257A04
:1021380066EEA76A27EE277A07EE901A5108023250
:10214800F8EEE77A0AEB8100944280ED006A05EB2D
:10215800810067EEA57AC0ED006A0CEB810009EBFF
:10216800810180ED007A98ED0C7A67EE877AC1EDEF
:10217800007ABFD8D7F804903D69D7E902CB60460A
:102188006208BB6949469847D8F82C307A69D8ED77
:102198000D6A1A449FED3E7A9FED3E6A131D9246E2
:1021A800DFF8E4C00022FB612B1D364ED9E9008E12
:1021B8004EE0F4EEC67AF1EE10FAC0F2FC81304639
:1021C80045F822000EEB0100D0ED007A66EEA77A02
:1021D800F4EEC77AF1EE10FA49D9F4EEC67AF1EEC8
:1021E80010FAC0F2EF813046BBF1020F43F822002B
:1021F8002AD0D9F808000844D0ED007A66EEA77A0C
:10220800F4EEC77AF1EE10FA35D9F4EEC67AF1EEAB
:1022180010FAC0F2C98130464AF82200D9F80C00F9
:102228000144D1ED007A66EEA77AF4EEC77AF1EEB2
:1022380010FA1ED9F4EEC67AF1EE10FAC0F2AD81AA
:102248003146F86940F82210023294427FF6CBAC4E
:10225800510808EB81008900D0ED007A66EEA77A74
:10226800F4EEC77AF1EE10FAA3D86046A8E7604604
:10227800BAE76146E5E76046CEE700BF0280FFFFA8
:10228800000000300082FF7F007E008000000034E4
:1022980004FF7FBF04FF7F3F002C00F0EB807A69CA
:1022A8000021D8F82430C7F8109003EB820ED7F835
:1022B8001C909300FD610EF104021FED0C6A7B6116
:1022C800331D154656F821204808D8ED0C6ABBF195
:1022D800020F82F40002A2F5000207EE902A53F8DA
:1022E800212082F40002B8EEE77AA2F5000227EE78
:1022F800067A07EE902A0AEB8002F8EEE77A27EED4
:10230800267A67EE867A82ED007A09EB80024FEA38
:10231800800067EEA67AC2ED007A27D05EF8212009
:1023280082F40002A2F5000207EE902A55F8212057
:1023380082F40002B8EEE77AA2F5000227EE067AE8
:1023480007EE902ADCF80820F8EEE77A024427EE38
:10235800267A67EE867A82ED007A98ED0C7ADCF8B8
:102368000C2067EE877A0244C2ED007A02318C4273
:10237800A8D8D7F8109060466208BB694946FD693D
:102388009847D8F82C307A69D8ED0D6A1A441FEDB1
:10239800407A1FED406A131D9246DFF8C4C200223E
:1023A800FB612B1DAB4ED9E9008E4EE0F4EEC67AE8
:1023B800F1EE10FAC0F2C580304645F822000EEB67
:1023C8000100D0ED007A66EEA77AF4EEC77AF1EE56
:1023D80010FA49D9F4EEC67AF1EE10FAC0F2BF80CD
:1023E8003046BBF1020F43F822002AD0D9F8080082
:1023F8000844D0ED007A66EEA77AF4EEC77AF1EEDB
:1024080010FA35D9F4EEC67AF1EE10FAC0F2AE80C1
:1024180030464AF82200D9F80C000144D1ED007A80
:1024280066EEA77AF4EEC77AF1EE10FA1ED9F4EE4A
:10243800C67AF1EE10FAC0F28B803146F86940F89E
:102448002210023294427FF6CEAB510808EB81008D
:102458008900D0ED007A66EEA77AF4EEC77AF1EE3D
:1024680010FAA3D86046A8E76046BAE76146E5E7F0
:102478006046CEE7224649466046BB699847FFF763
:10248800B2BBC7F810B0002298ED0C6A331DDFED1F
:10249800726AD7F81CB0786956F8221007EE901ABD
:1024A80053F82210B8EEE77A07EE901A5108023274
:1024B800F8EEE77A27EE267A0AEB810E94420BEBC8
:1024C800810167EEA67A27EE067A67EE867A8EEDA8
:1024D800007AC1ED007ADFD88300D7F810B07B61AD
:1024E8004DE61A46C7F810B098ED0C6A331DDFEDBB
:1024F8005B6AD7F81CB0786936F9221007EE101A13
:1025080033F9221007EE901AB8EEC77A5108023252
:10251800F8EEE77A27EE267A0AEB810E94420BEB67
:10252800810167EEA67A27EE067A67EE867A8EED47
:10253800007AC1ED007ADFD88300D7F810B07B614C
:1025480034E5F0EE675AFEEEE45A15EE900A34E7E9
:10255800F0EE675AFEEEE45A15EE901A6EE7F0EECA
:10256800675AFEEEE45A15EE900A3AE7F0EE675A1B
:10257800FEEEE45A15EE900A4BE767EEA57AFDEEFB
:10258800E77A17EE900A00B232E567EEA57AFDEE1B
:10259800E77A17EE900A00B23FE5F0EE675AFEEED2
:1025A800E05A15EE901A4CE6F0EE675AFEEEE05A45
:1025B80015EE900A30E6F0EE675AFEEEE05A15EE98
:1025C800900AFDE5F0EE675AFEEEE05A15EE900A25
:1025D8000AE667EEA57AFDEEE77A17EE901A09B2D9
:1025E8004AE567EEA57AFDEEE77A17EE900A00B2A3
:1025F8002CE5F0EE675AFEEEE45A15EE902A1FE439
:1026080067EEA57AFDEEE77A17EE902A12B2FFF789
:1026180031BBF0EE675AFEEEE45A15EE902AFFF74A
:10262800FDBBF0EE675AFEEEE05A15EE902AFFF772
:102638009BBBF0EE675AFEEEE05A15EE902AFFF7C4
:1026480080BB67EEA57AFDEEE77A17EE902A12B204
:10265800FFF724BB82FF7F00000000300000003835
:102668007E0080FF30B5184C154685B0046004F133
:10267800080EEC460FC98EE80F00D4ED047AF5EE8B
:10268800C07A8CE80F00F1EE10FA1ADDB7EE006A96
:1026980094ED057A27EE277AC6EE276A84ED0D7A3F
:1026A800C4ED0C6A6DB1204640F8185F01F0E0FEF9
:1026B800064903690020064A2162A262E36005B068
:1026C80030BD012005B030BD9CAF00240020003093
:1026D8000000003000680830704700BFB1F5807F07
:1026E80003680A4628BF4FF48072B1F5807F9A606C
:1026F80094BF0020012070470068183001F018BF0F
:1027080070B504688AB0A369E160CBB104F118051B
:10271800284601F0ADFE8446EE46E668BCE80F00A8
:10272800AEE80F00BCE80F00AEE80F009CE803001D
:102738008EE8030069462846049601F0A1FDF8B921
:10274800E069D8B104F11C05284601F091FE8446E1
:10275800EE46E468BCE80F00AEE80F00BCE80F00E6
:10276800AEE80F009CE803008EE80300694628469F
:10277800049401F085FD003818BF01200AB070BD2F
:1027880001200AB070BD00BF30B5046883B00D46A3
:10279800E3694BB1A3680020E26A616A9B0000907C
:1027A80004F11C0001F066FEA3680748A26A9B00BA
:1027B800216A009004F1180001F05CFE0020C4E9D1
:1027C800005003B030BD00BFB11A000810B4074B69
:1027D8004FF07E5130240022032019619C60D8609C
:1027E8005DF8044B5961C3E9062270479CAF002489
:1027F800F6EE007A9FED166A20EE207A0160F7EE79
:10280800006A80ED036A80ED020A27EE277AC6EE99
:10281800877AF4EEE67AF1EE10FA11DDF0EE667AD8
:102828004FF07E514FF0000C02760022C0ED017A85
:10283800C0F814C0016143768276C0ED070A70477C
:10284800F4EEC67AF1EE10FAEAD5F0EE467AE7E74A
:10285800000000000268037E128807EE902AFBEE53
:10286800C87A1BB1B7EE007A77EE677AD0ED056AC1
:1028780090ED047A77EEE67A437E67EE877A0BB1BD
:10288800F1EE677A90ED030A90ED017A77EEC07A5F
:10289800A7EE270A80ED030A704700BF837E80ED0C
:1028A800020AABB9D0ED077A27EE800AF6EE007A75
:1028B800B7EE007A20EE270AC7EE007AF4EEC77A60
:1028C800F1EE10FA07DDF0EE477AC0ED017A7047B5
:1028D800DFED067AE8E7F5EEC07AF1EE10FAF4D506
:1028E800DFED037AC0ED017A704700BF6F12033B3A
:1028F8000000000030B585B004460025ADF80C1086
:10290800ADF80820ADF8043002F0C8FDBDF80C2081
:102918004FF48073206004F118002283BDF808206A
:102928006383E383A283257100F076FC04F11C0025
:1029380000F072FC9FED060A019904F1080000F00E
:1029480019F94FF6FF736562238405B030BD00BFE7
:1029580000000000F8B5044602F0A0FD0026236838
:102968002671834205D104F10800BDE8F84000F063
:102978001BB9012794F82050206004F11800BD40CD
:10298800277100F025FD6DB2284394F82150BD4011
:1029980084F8200004F11C0000F01AFD94F820309F
:1029A8006DB2666203F003032843022BC0B284F8B9
:1029B800210009D000F003000228D4D1002BD2D185
:1029C8004FF0FF336362CEE78307CCD16762CAE773
:1029D800DFED167A8C46B4EE670A10B504468646D3
:1029E800F1EE10FA2DED028B80ED080A48BFB0EE2B
:1029F800670AC0ED090AB0EE608A80F83420BCE8A6
:102A08000F00AEE80F009CE80F008EE80F000FF0F3
:102A1800E3FCF0EE407AB0EE480AC4ED0A7A0FF013
:102A2800DBFC84ED0B0ABDEC028B10BD95BFD633E1
:102A380090F8343010B50446032B4BD8DFE803F088
:102A48003B2A1502FFF706FF60EE006AD4ED087A0C
:102A580094ED097A26EE800A37EE677AE0EE077A77
:102A6800C4ED0C7AB0EE670A10BDFFF7F3FE94EDE3
:102A78000A7AD4ED0B7A77EEC77AA0EE277AB0EE11
:102A8800470A0FF037FCF0EE407A84ED0C0AB0EEFE
:102A9800670A10BDFFF7DEFED4ED087A94ED097AD7
:102AA80020EE000A37EE677AE0EE077AB0EE670AA2
:102AB800C4ED0C7A10BDFFF7CDFED4ED087A94ED85
:102AC800097A37EE677AE0EE077AB0EE670AC4ED66
:102AD8000C7A10BDD0ED0C7AC4E700BF30B585B0D4
:102AE80004469FED110A9DF82050ADF80C1003998B
:102AF800ADF808202A46ADF804308DED000A0CF038
:102B08001BFD9DED000A2A46029904F11C000CF0F9
:102B180013FD9DED000A2A46019904F1380005B01D
:102B2800BDE830400CF008BD00007A4438B50C46CA
:102B3800054691ED000A0CF023FD94ED010A05F11C
:102B48001C000CF01DFD94ED020A05F13800BDE8EB
:102B580038400CF015BD00BF10B504460CF022FD3E
:102B680004F11C000CF01EFD04F13800BDE8104013
:102B78000CF018BD70B5044682B0C1F30726CDB27B
:102B8800ADF8041002F08AFC4FF480724FF0012374
:102B98002060A01DA571A280E671A36002B0BDE807
:102BA800704000F039BB00BF38B5044602F076FC2F
:102BB800002223682271834210D00122A57AE37A89
:102BC800954020602271A01D6DB243B900F000FC51
:102BD80040B22843C0B27F28A0720AD038BD00F0A6
:102BE800F7FBB0FA80F040092843C0B27F28A072F2
:102BF800F4D102F053FC07EE900AF8EE677AC4EDC0
:102C0800037A38BD82B04FF0000C0323ADF80410EE
:102C1800BDF8042080F810C00280438002B07047DD
:102C28002DE9F04FBE4E00258FB0BE4C037006F163
:102C380040034260074601928846202229463046D2
:102C4800C4F85831C4F85461CDE90355CDE90555A8
:102C5800CDE90755CDE90955CDE90B550FF00EFF24
:102C68002022294604F59970C4F82151C4F8255149
:102C7800C4F82951C4F82D510FF000FF019B84F8C6
:102C8800385284F820317A68002A5FD02B464146B2
:102C9800B64604F5907599464FF0010A03EB031008
:102CA800D1F800B0D1F804800133D1F808C0221857
:102CB800CE6844F800B0C2F80480C2F808C0D660F4
:102CC800087C2EF8029B10740A7C05F8012F002A54
:102CD80069D07A68113184F838A29A42DED84FF464
:102CE800802291489DF8043008214FF000084FF0E9
:102CF8000009C4F874310023C4E957020122C4F85A
:102D0800643184F87031C4E95A2194F83812C4E95E
:102D1800608981B3C4F88821002284F8713184F86D
:102D280078313B78C4E96322A3B301220020012152
:102D3800013B84F89421C4E96801082B2CD8DFE80A
:102D480003F0ABB0B5BABFC4C9CFD6009DF8043004
:102D58000121C4F86421C4F874314FF4802384F845
:102D68007021714AC4E9572308230022C4E95A1381
:102D78000023C4E960230123002284F87131002371
:102D880084F878310323C4F888313B78C4E9632296
:102D9800002BCAD184F89431644803F0E5FB03465C
:102DA80038B1FFBEFEE77A6811319A423FF676AF36
:102DB80095E703A95D48039303F034FD0546002811
:102DC80068D1022240F2FF73CDE9082300230422D0
:102DD800CDE90A2394F82031002B00F0D5804FF07C
:102DE800060921E0022B00F08980012B40F0C48005
:102DF8009AF80130012B00F0C180002B4C4B18BF12
:102E0800002306A94948CDE9063902F0D9FF002870
:102E180040F0BF80013594F82031EDB2AB4240F26A
:102E2800B380444B53F825902FB207EB071704EBF8
:102E3800070A504600F0F0F905EB051323441B7C04
:102E4800042B7DDC022B00F3918000F08D80631948
:102E5800002283F81021E35D002BC3D19AF80130DA
:102E6800062B00F08580072B00F08A80022B00F0EB
:102E78009680032B00F09580002B00F09680012BA4
:102E880000F09180042B00F09280052B2A4B18BF8C
:102E98000023B6E7FFBEFEE703224023C4E966230A
:102EA8007AE707226023C4E9662375E70F228023A7
:102EB800C4E9662370E71F22A023C4E966236BE7F1
:102EC8003F22C023C4E9662366E77F22E023C4E9E2
:102ED800662361E7FF224FF48073C4E966235BE74A
:102EE80040F2FF124FF49073C4E9662354E740F2AE
:102EF800FF324FF4A073C4E966234DE79AF8013016
:102F0800042B37D0052B3DD0002B40D0012B42D0CD
:102F1800022B42D0032B094B18BF002371E700BFD7
:102F280000400030D8AF00240020024034B1002413
:102F38000002B0257C2D01080000B84F0020903613
:102F480003233E1D04EB05084FF0000B264488F8C8
:102F5800103130460BF1010B00F05EF998F8103192
:102F680004365B45F5DC76E70123EAE70223E8E768
:102F7800104B46E7104B44E7002342E70F4B40E76E
:102F88000F4B3EE70F4B3CE70FB0BDE8F08F0E4B01
:102F980037E7FFBEFEE70D4B33E70D4B31E70D4B2F
:102FA8002FE70D4B2DE70D4B2BE70D4B29E70D4B6D
:102FB80027E700BF0800900C1000C0102000F01494
:102FC8008000501D000180210004002A0008302ED6
:102FD800001060320040C03A0080F03E00005247C6
:102FE800000021430000844B38B5094C40F2FF72C1
:102FF8004FF0011104F5AE75284603F0C1FB94F8B3
:103008002021D4F854112846BDE8384003F02CB9E3
:10301800D8AF0024034B0F29D3F8540198BF00EB15
:1030280041007047D8AF0024214B02689A4200D073
:103038007047204A00232048D2F8D81030B51F4CDA
:1030480041F0200183B0C4F8C001092004F5E075FF
:10305800C4E971034FF48060C2F8D810D2F8D820C0
:103068004FF40061C4E9733094F8380202F020028A
:10307800C4F8D4114FF40051984201922846C4F87C
:10308800D811C4E97833019B14BF00234FF480732F
:10309800C4F8DC3103F0ECFD08B1FFBEFEE704F52F
:1030A800AE73C4F8A851C4F8F83103B030BD00BFFE
:1030B800002002400044025840000240D8AF0024DB
:1030C800014804F04DB900BF98B1002402682DE909
:1030D800F84F4B4B9A4201D0BDE8F88F494D95F80F
:1030E8003832002BF8D095F82031002B77D0002407
:1030F80005F10C0905F5997605F59077A04613E0DA
:1031080003F0010117F811BCA9F1080000F06EF9ED
:10311800BBF1010F25D895F82031013409F11109C7
:103128000236A2B293422BD917F8012F002AF4D005
:10313800D5F854310021327833F81400D5F85831D5
:1031480003EB041323F81200338801339BB2338056
:103158005FFA83FA3A789A42D2D88A46A6F800806B
:10316800D0E7CAF34001A9F1040000F03FF9BBF130
:10317800020FCAF38001CED0484600F037F9CAE7FB
:10318800002395F83802204909229842C5F8C83129
:103198004FF48060C5F8C011C5F8C4214FF4006130
:1031A8004FF40052C5F8CC3108BF4FF48073C5F80E
:1031B800D821C5E9740100221448C5E97732C5F859
:1031C800E42103F055FD08B1FFBEFEE795F8202184
:1031D800D5F854110E48BDE8F84F03F045B80A4930
:1031E80009224FF48060C5F8C831C5E970124FF460
:1031F80000614FF40052C5E97330C5E97512DAE78A
:1032080000200240D8AF00244000024098B10024BA
:1032180034B10024704700BF8378022B30B50446D0
:103228008FB037D0032B33D0012B31D000230A9332
:10323800E378012B2AD0022B28D000230B930023FC
:1032480020460C9302F036FC0546204602F03AFC74
:1032580023780990082B13D8DFE803F01F3245586C
:103268006B7E91A40500594BD3F8E02042F480729C
:10327800C3F8E020D3F8E03003F480730893089B88
:1032880009A9284604F0BEFB0FB030BD0B93D6E762
:103298000A93CDE711230A93CAE74C4B09A928469C
:1032A800D3F8E02042F00102C3F8E020D3F8E03080
:1032B80003F001030093009B04F0A4FB0FB030BDA2
:1032C800424B09A92846D3F8E02042F00202C3F88D
:1032D800E020D3F8E03003F002030193019B04F0EF
:1032E80091FB0FB030BD394B09A92846D3F8E0202F
:1032F80042F00402C3F8E020D3F8E03003F00403FE
:103308000293029B04F07EFB0FB030BD2F4B09A93E
:103318002846D3F8E02042F00802C3F8E020D3F8AA
:10332800E03003F008030393039B04F06BFB0FB03A
:1033380030BD264B09A92846D3F8E02042F01002F8
:10334800C3F8E020D3F8E03003F010030493049BA3
:1033580004F058FB0FB030BD1C4B09A92846D3F820
:10336800E02042F02002C3F8E020D3F8E03003F078
:1033780020030593059B04F045FB0FB030BD134BAC
:1033880009A92846D3F8E02042F04002C3F8E0201B
:10339800D3F8E03003F040030693069B04F032FBB9
:1033A8000FB030BD094B09A92846D3F8E02042F0F8
:1033B8008002C3F8E020D3F8E03003F080030793DD
:1033C800079B04F01FFB0FB030BD00BF004402583C
:1033D80038B5054602F06EFB0446284602F072FB3B
:1033E80001462046BDE8384004F014BD70B50646D5
:1033F8000D4602F05FFB0446304602F063FB2A1ECE
:103408000146204618BF0122BDE8704004F008BDFF
:103418000023122270B586B0CDE902230493036815
:10342800032B01D804230593061D841D304602F0A2
:1034380041FB0546304602F045FB034601A92846F4
:10344800019304F0DFFA204602F034FB03462046DD
:103458001C4602F037FB01A903462046019304F0FD
:10346800D1FA06B070BD00BF634A0368934210B535
:103478008CB028D0614A934258D0614A934200F0F8
:103488009480604A934201D00CB010BD5E4C5F48F6
:10349800D4F8E03043F00203C4F8E030D4F8E03068
:1034A80003F002030A930A9BFFF7B2FFD4F8F43043
:1034B80043F08003C4F8F430D4F8F43003F0800308
:1034C8000B930B9BE0E7504C5148D4F8E03043F0A5
:1034D8000203C4F8E030D4F8E03003F002030193AB
:1034E800019BFFF795FFD4F8E83000221F2043F432
:1034F80000131146C4F8E830D4F8E83003F4001398
:103508000293029BD4F8D83043F00103C4F8D830B2
:10351800D4F8D83003F001030393039B03F0F6F9C2
:103528001F200CB0BDE8104003F02EBA364C3948C5
:10353800D4F8E03043F08003C4F8E030D4F8E03049
:1035480003F080030493049BD4F8E03043F00203B3
:10355800C4F8E030D4F8E03003F002030593059B8B
:10356800FFF756FFD4F8E8300022212043F4800307
:103578001146C4F8E830D4F8E83003F48003069321
:10358800069BD4F8D83043F00103C4F8D830D4F8F7
:10359800D83003F001030793079B03F0B7F9212004
:1035A8000CB0BDE8104003F0EFB91B48FFF730FF3F
:1035B800154B00224820D3F8E840114644F4000493
:1035C800C3F8E840D3F8E84004F400040894089CE1
:1035D800D3F8D84044F00104C3F8D840D3F8D83021
:1035E80003F001030993099B03F090F948200CB0FC
:1035F800BDE8104003F0C8B900540040005800402E
:10360800005C0040001C005800440258A0B400248C
:1036180018B20024F0B20024C8B300242DE9F04306
:103628001A4B87B000254FF010099E46EC46184B00
:10363800FF22E04667461A700EF118060EF13004B4
:10364800CDE90055CDE90255ADF80090BCE80F0072
:10365800CDE90455AEE80F009CE803000095ADF8ED
:1036680000908EE80300B8E80F000FC69CE803003E
:103678000095ADF8009086E803000FCF0FC49CE8D2
:10368800030084E8030007B0BDE8F08308000024C5
:1036980014B2002410B5EFF3108472B6084B1A78F0
:1036A800120602D504B962B610BD1B78D8220548A7
:1036B8005BB202FB0300143003F052FEF2E700BFD6
:1036C80014B2002418B20024014805F041BA00BF22
:1036D800A4B20024014805F03BBA00BF7CB3002423
:1036E800014805F035BA00BF54B400242DE9F04371
:1036F8000F68D8243F4D85B007FB04F4032F05EB72
:103708000403036040DCCB680E46012B3CD84DD047
:103718004FF0D808B646DFF8FC9008FB0758BEE81B
:103728000F00C446ACE80F00DEF800300DF1100EB3
:10373800CCF80030D8F808C099E80F000EE90F005F
:103748000EEB8703BCF1010F53F8103CC8F88C301E
:1037580031D0BCF1020F42D0BCF1000F35D0317C22
:103768008C34D823002201202C4403FB0753490042
:10377800C3E92602C3F894102046C3E92822C3E906
:103788002A2204F0D7FF18B1012005B0BDE8F08364
:103798000146204605F0E8F90028F5D10146204603
:1037A80005F00CFA003818BF0120EEE70B7C103B3F
:1037B800672BADD9E8E701F0DFFF0F4B98420CBF4C
:1037C8000E4B0F4BC8F89030C9E701F0D5FF0A4BF4
:1037D80098420CBF0B4B0C4BC8F89030BFE701F078
:1037E800CBFF054B98420CBF084B094BC8F89030EB
:1037F800B5E700BF18B20024000E27072D0FB03020
:103808003211D0205F4390608A62E030200BA01014
:103818001A098010F42C01082DE9F041D0F8008035
:1038280082B00D4617461E4608F18C04204605F066
:1038380097F92028FAD1D8F80C3073B96D002046D2
:10384800089C33463A46A9B2009404F0C9FF0038F0
:1038580018BF012002B0BDE8F081089B3246394606
:10386800204605F091F8F2E7044B10221A7483F809
:10387800E82083F8C02183F89822704718B2002402
:1038880030B5002395B04FF48071062204460B939F
:1038980006921393CDE90C13CDE90E33CDE911331C
:1038A80001F06CFF07282BD004F1100541F2883293
:1038B80006A9284605F094FF28B10123184684F884
:1038C8005C3015B030BD0222022306A92846CDE996
:1038D800002310220123CDE9022300224FF48003A4
:1038E800CDE9042305224FF0807306926A460F93B0
:1038F80041F2883306F0E0F80028DED115B030BD7B
:103908000323012084F85C3015B030BD00000000AE
:1039180070B50023A4B04FF080724FF48075044650
:10392800ADF806300D93CDE910320122CDE90E53E2
:10393800CDE91223CDE91433002943D0F02300F157
:10394800100508AEADF80630C02341F28832314682
:103958002846089305F044FF28B10123184684F847
:103968005C3024B070BD41F288320DF10601284662
:1039780005F0A0FF03460028EFD105224FF480711F
:103988001E93284616924FF080721B9321931F9224
:1039980002AA9FED1F7BCDE91C13CDE922338DEDE3
:1039A800027B9FED1D7B41F2883316A98DED047BC8
:1039B8009FED1B7B8DED067B06F07EF80028CCD1B1
:1039C80024B070BD00F1100508AE612341F28832C1
:1039D80031462846089305F003FF0028BDD141F27F
:1039E80088320DF10601284605F0E2FF0028B4D11F
:1039F800BDF80630204623F0780343F04003ADF8C5
:103A08000630FFF73DFF00289ED0A6E7AFF3008001
:103A1800000000000100000010000000010000008C
:103A280000000000000040002DE9F04F00234FF493
:103A3800807501264FF0807804462DED028BABB0DF
:103A48008DF8073013932193299314950E96CDF88A
:103A58005C80CDE91533CDE91863CDE91A33CDE99A
:103A68002253CDE92433CDE9273306231C9301F0F3
:103A780085FE072808D004F1100741F288321CA9F6
:103A8800384605F0ADFE40B10123184684F85C3095
:103A98002BB0BDEC028BBDE8F08F4FF0020A4FF05F
:103AA800020B4FF0050941F2883308AA1CA93846D1
:103AB800CDF89480CDF870909FED2D8BCDE908ABB3
:103AC8004FF0000A4FF4800B8DED0A8BCDE90CAB5B
:103AD80005F0F2FF0028D7D141F2883238460EA906
:103AE80005F07EFE0028CFD1402341F288320DF147
:103AF800070138468DF8073005F0DCFE0028C3D1F1
:103B080041F288330EA902AA3846CDF83890CDF88C
:103B18005C809FED197B8DED048BCDE906AB8DEDB7
:103B2800027B05F0C9FF03460028ADD1CDF870909F
:103B38004FF00109CDF894804FF00008219308AAAE
:103B480029931CA938462295CDE92333CDE927339B
:103B580041F288338DED0A8BCDE90CABCDE90889AC
:103B680005F0AAFF002893D0304684F85C608FE700
:103B780010000000010000004000000040000000AC
:103B88002DE9F043624CA3B00D46046001F0F6FD48
:103B9800072800F0A980286823466968AA6807C32F
:103BA8001E46AB8926F8043B3046257B677B05F02B
:103BB800F9FDE0B9574B012D4FF00108E061236191
:103BC80014BF4FF480134FF40003C4E9058893FA37
:103BD800A3F3B3FA83F34FF48079013BC4F824903C
:103BE800C4E90B003046236205F070FD38B10122AC
:103BF800134684F85C20184623B0BDE8F08366239A
:103C08000B90139041F2883206A90693CDE90C90E7
:103C1800CDE90E00CDE91100304605F0E1FD0028A0
:103C2800E5D1992341F2883206A93046069305F07A
:103C3800D7FD0028DBD105231C9019906A46149300
:103C48004FF08073219014A91D9341F288339FEDA2
:103C58002A7BCDE91A90CDE91F008DED007B9FED01
:103C6800287B30468DED027B9FED277B8DED047B15
:103C780005F022FF0028BAD129462046FFF748FE62
:103C88000028B4D12046FFF7CFFE03460028AED166
:103C9800002FB0D1189330460027002606AA14A991
:103CA800CDF86890CDE91F33EB2314934FF44063AC
:103CB8001B934FF4005317934FF440431C93A023D6
:103CC8001693062319934FF0805321934FF04073B6
:103CD800CDE906671D9305F067FF034600288AD0E3
:103CE800434684F85C8086E701230322184684F85B
:103CF8005C2023B0BDE8F083000000000100000054
:103D0800100000000100000000000000000040005A
:103D180078B50024005000522DE9F04F8FB0414B88
:103D28000024026800AF9A427C63C7E90944C7E9E6
:103D38000B4403D03C37BD46BDE8F08F3A4B40F604
:103D480009213A48EB46D3F8D42007F11C0607F1BD
:103D5800220A4FF0020942F480424FF00308C3F8E8
:103D6800D420D3F8D42002F48042BA60BA68D3F8D9
:103D7800E02042F04002C3F8E020D3F8E02002F04F
:103D88004002FA60FA68D3F8E02042F02002C3F853
:103D9800E020D3F8E02002F020023A613A69D3F833
:103DA800E02042F01002C3F8E020D3F8E02002F04F
:103DB80010027A617A69D3F8E02042F00202C3F86F
:103DC800E020D3F8E030F86103F002033984BB61E6
:103DD800174B7B60BB697B6853F8040F7B6001F06D
:103DE80069FE7B680546186801F06CFE16F8013B11
:103DF800786207F124012846C7F830807B63C7E959
:103E08000A9403F0FFFD5645E5D100225C201146D7
:103E180002F07CFD5C2002F0B7FD3C37DD46BD4674
:103E2800BDE8F08F00500052004402580A0A090900
:103E3800D4B50024114B02689A4200D07047104A4A
:103E480070B5D2F8D4300F4C23F4804304F118062F
:103E5800C2F8D43054F8040F01F02CFE054620684F
:103E680001F030FE0146284603F00CFFB442F1D1C0
:103E78005C20BDE8704002F095BD00BF00500052C4
:103E880000440258D4B50024014805F019BF00BF0A
:103E980088B50024084B1A1D981D03F1080110B4B9
:103EA8009C1C9A6603F10A02C3E91834C3E91B0192
:103EB8005DF8044B5A67704778B5002438B5036835
:103EC80071B9026A00F1280500F5AC74012A0CBF2B
:103ED800002140218BBB1D4B5722C0F858310DE003
:103EE800426A00F1C00500F5E874012A0CBF002100
:103EF8004021EBB1164B5A22C0F8D031002320469E
:103F0800C4E901214FF480524FF480616362626119
:103F18004FF48042C4E903314FF48073C4E90623A7
:103F28004FF40033236202F0A3FE58B1FFBEFEE750
:103F3800084B5822C0F8D031E0E7074B5922C0F8A7
:103F48005831DBE7C5E92044A56338BD10000240BD
:103F58007000024028000240580002402DE9F0435A
:103F6800821D05468BB0031D05F10A010830CDE915
:103F7800052305F10C02AB69CDE907010992002B75
:103F88003DD0EB69B3FA83F84FEA581801230222AF
:103F980005AE0AAF4FF006090393CDE9012356F8A1
:103FA800044B2B792278934216D02B68F3B1012B5E
:103FB80002D1F2B10A230493204601F083FD03469F
:103FC8002046009301F076FD694603F01BFDBE42D2
:103FD800E5D10BB0BDE8F083697963789942E4D103
:103FE800B8F1000FF3D02B68002BE0D1CDF810907A
:103FF800E2E76378022B14BF0A230823DBE74FF0BC
:104008000108C3E7534A0368934230B505468BB0AD
:1040180055D02032934252D04F4A934204D0203296
:10402800934201D00BB030BD4C4C4D48D4F8E03031
:1040380043F00103C4F8E030D4F8E03003F00103A2
:104048000593059BD4F8E03043F00803C4F8E0304A
:10405800D4F8E03003F008030693069BD4F8E03068
:1040680043F04003C4F8E030D4F8E03003F04003F4
:104078000793079BD4F8F03043F40003C4F8F030FA
:10408800D4F8F03003F400030893089BFFF766FFA9
:10409800D4F8D830296843F001032F4A3048C4F8CF
:1040A800D830891AD4F8D83018BF012103F0010399
:1040B8000993099B0BB0BDE83040FFF7FFBE274CC2
:1040C8002848D4F8E03043F00103C4F8E030D4F8CD
:1040D800E03003F001030093009BD4F8E03043F094
:1040E8001003C4F8E030D4F8E03003F01003019373
:1040F800019BD4F8E03043F04003C4F8E030D4F832
:10410800E03003F040030293029BD4F8F03043F40C
:104118008003C4F8F030D4F8F03003F4800303933C
:10412800039BFFF71BFFD4F8D830296843F001033D
:10413800084A0C48C4F8D830891AD4F8D83018BFBF
:10414800012103F001030493049B0BB0BDE8304048
:10415800FFF7B4BE04580140045C01400044025813
:104168004CB80024F0B50024014803F0F9B800BFAA
:1041780048B70024014803F0F3B800BFC0B70024D3
:10418800014803F0EDB800BFA4B90024014803F0CA
:10419800E7B800BF1CBA00241A4A0368934210B457
:1041A8000BD02032934208D0174A934216D02032BF
:1041B800934213D05DF8044B7047144B0022D3F898
:1041C8005442C3F85822002CF4D0D3F84802D3E95B
:1041D800931223465DF8044B520818470B4B0022F4
:1041E800D3F8B044C3F8B424002CE3D0D3F8AC24FB
:1041F800D3F8A814D3F8A404520823465DF8044B56
:10420800184700BF04580140045C0140F0B5002481
:10421800184A0368934210B40BD02032934208D056
:10422800154A934217D02032934214D05DF8044BBC
:104238007047124BD3E994245208C3F85822002C33
:10424800F4D0D3E99201234601EB820100EB82000E
:104258005DF8044B1847094BD3F8AC24D3F8B044A5
:104268005208C3F8B424002CE0D0D3F8A814D3F82B
:10427800A404E8E704580140045C0140F0B50024B8
:104288002DE9F04F0C684FF41776754F87B004FB93
:1042980006F6012C07EB060AC0F800A000F3A08080
:1042A8000D468E464FF00008D44669A3D3E9002393
:1042B80069A1D1E90001CDE9022306ABCAF8508211
:1042C80003EB8403CDE9040153F810BC53F8083C10
:1042D800CAE992880193BEE80F00ACE80F00BEE877
:1042E8000F00ACE80F00019B9EE80300CAF828B055
:1042F800CAF8C0308CE803002B69042B0CD8DFE81F
:1043080003F0737D879103004FF41773554A03FB3D
:1043180004739A64C3F8E020AA692B6A002A43D080
:10432800002B4FF4177308BF022203FB047318BF56
:104338000322DA6201221A63EA696B6A002A40D111
:10434800191E4FF4177318BF012103FB0473C3E947
:1043580031126B69022B05D8434A12F80380434A8D
:1043680052F823904FF4177306F128004246494645
:1043780003FB04740023384463646363E365C4F88F
:10438800DC30C4F8CC30C4F8F430C4E90F33C4E9E5
:104398001533C4E93533C4E93B33022307F032FD52
:1043A800002849D0FFBEFEE7191E4FF4177318BF47
:1043B800012103FB0473C3E90B12EA696B6A002A43
:1043C800BED0002B4FF4177308BF022203FB0473FF
:1043D80018BF0322C3F8C4200122C3F8C820B8E7D5
:1043E800012007B0BDE8F08F4FF417734FF4FA526D
:1043F80003FB04739A64C3F8E0208DE74FF4177346
:104408004FF47A5203FB04739A64C3F8E02083E7FD
:104418004FF417734FF4FA4203FB04739A64C3F81A
:10442800E02079E74FF417734BF6803203FB0473EF
:104438009A64C3F8E0206FE706F1C0000223424601
:104448004946384407F0DEFC0028CAD0FFBEFEE724
:1044580004580140045C014024580140245C014098
:10446800F0B5002400770100BC2D0108C02D01081B
:104478000068704770B5046882B015460E46C4F8E7
:104488005032C4E99212069AC4F85422A269012A49
:1044980026D0626A012A9AB211D0294604F1C000D6
:1044A800019207F06BFD236A019A012B10D029466F
:1044B80004F1280007F062FD002002B070BD04F18D
:1044C800C000019207F0ECFD236A019A012BEED19E
:1044D800314604F1280007F0E3FD002002B070BD6A
:1044E800226A012A9AB211D0294604F128000192C1
:1044F80007F044FD636A019A012B10D0294604F1A4
:10450800C00007F03BFD002002B070BD04F1280098
:10451800019207F0C5FD636A019A012BEED131467D
:1045280004F1C00007F0BCFD002002B070BD00BF60
:1045380003681B69042B05D8044A02EB830393ED37
:10454800000A70479FED020A704700BFCC2D010892
:1045580000803B470368D3F85802704770B504469B
:10456800554800234FF48065C4F8A8004020C4F8DB
:10457800CC301646C4F8280194F89801C4F8B03035
:104588000028C4F82C31C4F83C3114BF4FF48070B3
:104598000020C4F84431C4F8C4004FF44030C4F8D3
:1045A8003051C4F8C800C4F840014448C4E92D3566
:1045B800C4E92F33C4E94D336368C4F82001072BDD
:1045C8000BD8DFE803F03A434C555E67700451227C
:1045D8005223C4F8AC20C4F8243181B9BEB994F888
:1045E800983153B1D4F8A810E2690B6823F0080396
:1045F8000B60136843F010031360002070BD04F1D2
:10460800A805284602F034FB48B1FFBEFEE704F5D2
:104618009075284602F02CFB40B1FFBEFEE704F17E
:104628001C03C4F89450C4F8E030D7E704F11C0325
:10463800C4F89050C4F85831D1E729222A23C4F885
:10464800AC20C4F824310029C8D0D8E72B222C2369
:10465800C4F8AC20C4F824310029BFD0CFE72D22FC
:104668002E23C4F8AC20C4F824310029B6D0C6E7FC
:104678003F224023C4F8AC20C4F824310029ADD02F
:10468800BDE741224223C4F8AC20C4F824310029F4
:10469800A4D0B4E747224823C4F8AC20C4F8243196
:1046A80000299BD0ABE74F225023C4F8AC20C4F8B4
:1046B8002431002992D0A2E7880002407004024009
:1046C800D0F894301B682DE9F0415968C0B0D0F893
:1046D8009C5106464942D0F8A842D5F80031C9B2E3
:1046E800D5F80421013B0C1B9B1AD5F80421E4B230
:1046F800DBB2A34294BFD2181219C5F80421D5F829
:104708000431B3F5807F05D9D5F80431A3F580735A
:10471800C5F80431C6F8A812D5F80021A718B7F5CE
:10472800807F23D9C2F58078A918D2F5807222D16A
:10473800444502D0B4EB08022CD1FFB206F5D0787C
:10474800C5F80071D6F8A4022518B5F5807F8CBF8E
:10475800C0F5807727461FBBBC4201D0E21B0ED1B3
:10476800EDB2C6F8A45240B0BDE8F081A9182246BF
:10477800002CE2D0A04668460EF072F9D8E70DEB9F
:104788000701EDB240460EF06BF9C6F8A45240B0EE
:10479800BDE8F0810DEB080029460EF061F9CCE781
:1047A80040443A4669460EF05BF9D5E72DE9F04FEB
:1047B800814683B00E4617461D4600F11C0420466C
:1047C80007F0FCFF2028FAD1012200214846FFF714
:1047D800C5FE8046002835D1EFF31083019372B6E9
:1047E800DFF888B00C9B99F90420DFF884A0DFF883
:1047F8008490CBF800300D9B89F80020CAF800306F
:104808000DB11846A847BAB23146204607F0BEFD9A
:1048180030B9019B03B962B6404603B0BDE8F08FDA
:104828000023CBF80030CAF80030FF2389F80030A5
:104838000C9B8BB101210D9888469847019B002B52
:10484800EAD1E8E70C9B53B101210D9888469847B7
:10485800404603B0BDE8F08F4FF00108D9E74FF0AC
:104868000108404603B0BDE8F08F00BFB4D2002471
:10487800BCD20024B8D200242DE9F04F814683B081
:104888000E4617461D4600F11C04204607F096FF09
:104898002028FAD1002201214846FFF75FFE804612
:1048A800002835D1EFF31083019372B6DFF888B092
:1048B8000C9B99F90420DFF884A0DFF88490CBF8EA
:1048C80000300D9B89F80020CAF800300DB1184659
:1048D800A847BAB23146204607F0AAFD30B9019B75
:1048E80003B962B6404603B0BDE8F08F0023CBF8A9
:1048F8000030CAF80030FF2389F800300C9B8BB1D8
:1049080001210D9888469847019B002BEAD1E8E7DA
:104918000C9B53B101210D9888469847404603B037
:10492800BDE8F08F4FF00108D9E74FF00108404685
:1049380003B0BDE8F08F00BFB4D20024BCD200247D
:10494800B8D200242DE9F0410D4682B0EFF310876C
:1049580072B6002948D1FF23254A264C23701368D4
:104968002BB1002029461060234A10689847237805
:104978001B0625D5DFF888800025204E444605E033
:1049880001351C3406F52B76092D19D0A369012BA6
:104998001BD0002BF4D1216830460029F0D0636980
:1049A800019323690093E3682289FFF765FF0028D4
:1049B800E6D1C5EBC50508EB850348F82500586026
:1049C80007B962B602B0BDE8F08161680029D7D0A6
:1049D80063693046019323690093E3682289FFF7EE
:1049E800E5FE0028CCD1E4E709F0E4F9B3E700BF1D
:1049F800B4D20024B8D20024BCD20024A8BA00241F
:104A080050000024F0B5002387B002220446049326
:104A1800CDE90223027843680B2A4FEA430523D1E4
:104A2800A2780B2A02D1002007B0F0BD47496B1CC1
:104A3800474851F82330457801781878E678884255
:104A480067D0824275D0D87803F1030C81426CD0CC
:104A5800824276D0987903F1060C88426DD0824262
:104A680031D0012007B0F0BD384B394853F8253014
:104A780001784678187894F801C081423BD0824288
:104A88003FD0D87803F1030E81423ED0824248D00D
:104A9800987903F1060E88423FD08242E1D1DB7952
:104AA8006345DED173469B782046059301F002F8F2
:104AB8000646204601F006F8034601A93046019350
:104AC80002F0A0FFACE7DB79B342CAD163460234F7
:104AD8009B782046059300F0EDFF034620461C46D0
:104AE80000F0F0FF034601A92046019302F08AFF77
:104AF800002007B0F0BD93F801E0B645C1D082426E
:104B0800BFD158786045BCD1CDE71F79B742BDD138
:104B1800BEE75F78AF4294D195E7D979B142BCD16D
:104B28009FE718796045B3D1BCE71F79AF428FD1B1
:104B380090E75878B04286D1C9E7D979A9428ED191
:104B48008FE71879B04285D1C0E700BF680100241B
:104B5800640100247E4A03689342F0B58FB000F0E8
:104B6800E480A2F54C42934200F0E18002F58062B5
:104B7800934200F0DE8002F58062934200F0DB8011
:104B880002F58062934200F0DA8002F544429342D3
:104B980000F0D380A2F51C42934200F0D28002F5C7
:104BA8008062934200F0CF806A4A934240F0CD8001
:104BB80008264FF42B77684C06FB07F7E519A87809
:104BC80000F088FFE05D00F085FF6B68082B13D8C4
:104BD800DFE803F03B49576573818F9D05005F4B04
:104BE800D3F8F42042F00802C3F8F420D3F8F430E4
:104BF80003F008030893089B2846FFF703FF0128E2
:104C080001D1FFBEFEE74FF42B730EAA544F0DF1EE
:104C1800240C03FB0644636802EB43050FCFACE8A2
:104C28000F003B680022ACF80030114635F9140C2F
:104C380001F06CFE63680EAA02EB430333F9140C0F
:104C48000FB0BDE8F04001F09FBE444BD3F8F02010
:104C580042F01002C3F8F020D3F8F03003F010034C
:104C68000093009BC8E73D4BD3F8E82042F400329C
:104C7800C3F8E820D3F8E83003F400330193019B2C
:104C8800BAE7364BD3F8E82042F48022C3F8E8208C
:104C9800D3F8E83003F480230293029BACE72F4B50
:104CA800D3F8E82042F40022C3F8E820D3F8E8302B
:104CB80003F400230393039B9EE7284BD3F8E820D3
:104CC80042F48012C3F8E820D3F8E83003F48013E4
:104CD8000493049B90E7214BD3F8F02042F0200284
:104CE800C3F8F020D3F8F03003F020030593059BB8
:104CF80082E71A4BD3F8E82042F08042C3F8E82054
:104D0800D3F8E83003F080430693069B74E7134B0F
:104D1800D3F8E82042F00042C3F8E820D3F8E8309E
:104D280003F000430793079B66E7002641E7012647
:104D38003FE702263DE703263BE7052639E7042639
:104D480037E7062635E7072633E700239B78FFDE9B
:104D580000100140000C0058A8BA00240044025872
:104D6800042D01082DE9F04F91B0002301223F499D
:104D78000DF1240A09938B4601F11C09CAF8143075
:104D880001F13808CDF800A001F15407CDF804A0CE
:104D980001F17006CDF808A001F18C05CDF80CA042
:104DA80001F1A804CDF810A001F1C40ECDF814A0AB
:104DB80001F1E00CCAE90133CAE903330F92FF227B
:104DC8002B4BCDE906AA1A70BAE80F00ABE80F0022
:104DD8009AE80700009B8BE807009B46BBE80F009A
:104DE800A9E80F009AE80700019B89E8070099469F
:104DF800B9E80F00A8E80F009AE80700029B88E8C6
:104E080007009846B8E80F000FC79AE80700039B09
:104E180087E807001F460FCF0FC69AE80700049BD4
:104E280086E807001E460FCE0FC59AE80700059BC7
:104E380085E807001D460FCD0FC49AE80700069BBA
:104E480084E807001C460FCCAEE80F00079B9AE8E1
:104E580007001C468EE807000FCCACE80F009AE864
:104E680007008CE8070011B0BDE8F08F500000245F
:104E7800B8D2002410B50A4C04F11C0007F0ACFBB2
:104E8800E369DB69DB0602D594F8983103B910BDF4
:104E98002046FFF715FCE36910221A6210BD00BF17
:104EA800A8BA002410B50B4C04F5327007F094FB37
:104EB800D4F8C832DB69DB0602D594F8443403B968
:104EC80010BD04F52B70FFF7FBFBD4F8C832102295
:104ED8001A6210BDA8BA002410B50B4C04F2745025
:104EE80007F07AFBD4F87435DB69DB0602D594F851
:104EF800F03603B910BD04F5AB60FFF7E1FBD4F859
:104F0800743510221A6210BDA8BA002410B50B4CD3
:104F180004F5026007F060FBD4F82038DB69DB0693
:104F280002D594F89C3903B910BD04F60400FFF7C4
:104F3800C7FBD4F8203810221A6210BDA8BA002482
:104F480010B50B4C04F6CC2007F046FBD4F8CC3A4D
:104F5800DB69DB0602D594F8483C03B910BD04F5BB
:104F68002B60FFF7ADFBD4F8CC3A10221A6210BDC3
:104F7800A8BA002410B50B4C04F6785007F02CFBA7
:104F8800D4F8783DDB69DB0602D594F8F43E03B922
:104F980010BD04F65C50FFF793FBD4F8783D10225F
:104FA8001A6210BDA8BA002410B50A4C04F12400F6
:104FB80007F012FB636ADB69DB0602D594F8A031BF
:104FC80003B910BD04F10800FFF77AFB636A1022E9
:104FD8001A6210BDA8CA002410B50B4C04F5347031
:104FE80007F0FAFAD4F8D032DB69DB0602D594F878
:104FF8004C3403B910BD04F52D70FFF761FBD4F8EC
:10500800D03210221A6210BDA8CA002410B50B4C69
:1050180004F27C5007F0E0FAD4F87C35DB69DB0653
:1050280002D594F8F83603B910BD04F5AC60FFF763
:1050380047FBD4F87C3510221A6210BDA8CA002498
:1050480010B5EFF3108472B6084B1A78120602D521
:1050580004B962B610BD1B784FF42B70044A5BB2DA
:1050680000FB032002F07CF9F2E700BFB8D200246D
:1050780050BB002410B5EFF3108472B6084B1A78B1
:10508800120602D504B962B610BD1B784FF42B7016
:10509800044A5BB200FB032002F062F9F2E700BFAA
:1050A800B8D20024C8BB00240021FFF74BBC00BFC6
:1050B8000021FFF747BC00BF0121FFF743BC00BF39
:1050C8002DE9F0414F684FF42B76DFF8D8808E46F3
:1050D80007FB06F60C46082F06EB08050560AC46EC
:1050E800BEE80F00ACE80F009EE807008CE8070058
:1050F80002D8EB68022B02D90120BDE8F081AA682A
:10510800032AF9D829690229F6D868690228F3D848
:105118000131DFF894C01C3689005CF827704644DA
:10512800EF61A46929631B492C6251F82330EB62B3
:10513800194B53F82230194AAB62002352F8202049
:1051480030466B646A62C5E90D33C5E90F3308F070
:1051580031FE0028D0D10146304608F083FE0028F1
:10516800CAD10146304608F0CBFE0028C4D13046EB
:1051780008F05AFE0028BFD1094A85F89801C2F8FC
:105188000401C5F89C21C2F80001C5F8A402C5F8BD
:10519800A002B2E7042E0108102E0108202E0108F3
:1051A80040410030A8BA0024E02D0108524B0122EA
:1051B8004FF4965003F5805130B40024C3F86025AD
:1051C800C3F86C25C3F86445C3F87005C3F80C2808
:1051D800C3F81048C3F81828C3F81C08C3F8B82A3D
:1051E800C3F8BC4AC3F8C42AC3F8C80AC3F8642D74
:1051F800C3F8684DC3F8702DC3F8740D3F4DC3E96B
:105208000224C3E90520C3E9AD24C3E9B020C1E9FC
:105218000424C1E90720C1E9AF24C1E9B220C1F8DB
:105228006C45374CC1F86825A378C1F874252288E5
:105238002468C1F8780533494FEA144C3248A1F87C
:1052480003204B71CA800B723049EA80A1F8032011
:105258004B71CA800B722E492B72C2802D4D03727E
:10526800A1F80320A0F8032043714B712A48CA8093
:105278000B722A49EA800C802B72C280037281F873
:1052880002C0A1F803204B71CA800B72244925483B
:10529800A1F803204B71CA800B722349A0F80320A0
:1052A800A1F803204B71CA800B72204943710C800E
:1052B80081F802C0A1F803204B71CA800B721C4907
:1052C800C2800C8081F802C0A1F803204B71CA800B
:1052D8000B72184903720C8081F802C0A1F80320F0
:1052E8004B71CA800B721449A1F803204B71CA8014
:1052F8000B7230BC704700BFA8BA0024F801002424
:10530800640100241002002404020024280200245E
:105318001C020024EC010024D4010024E4D200245F
:105328003402002458010024E0010024C0D20024E3
:10533800D8D20024CCD200244C010024704700BFEE
:1053480008B500F0C7FCBDE8084001F0A7BB00BFE6
:10535800064808B503680BB102F066FD0448036807
:105368001BB1BDE8084003F055BC08BD00D70024B8
:10537800F8D20024064808B503680BB102F054FDC2
:10538800044803681BB1BDE8084003F043BC08BDEE
:1053980000D70024F8D20024064808B503680BB1EA
:1053A80002F042FD044803681BB1BDE8084003F061
:1053B80031BC08BD00D70024F8D20024364BDA6A85
:1053C800520062D59A6A9A6A9A6A9B6A180600D548
:1053D80000BE314B9B6A990600D500BE2E4B9B6AD6
:1053E800DA0600D500BE2C4B9B6A1B0700D500BE11
:1053F800294B9B6A980700D500BE274B9B6AD907A3
:1054080000D500BE244B9B6A1A0400D500BE224B6F
:105418009B6A9B0400D500BE1F4B9B6AD80400D52D
:1054280000BE1D4B9B6A190500D500BE1A4B9B6A2E
:105438005A0500D500BE184B9B6A9B0500D500BED7
:10544800154B9B6AD80500D500BE134B9B6A990182
:1054580000D500BE104B9B6ADA0100D500BE0E4B8A
:105468009B6A1B0300D500BE0B4B9B6A580300D5F3
:1054780000BE094B9B6A990300D500BE064B9B6A88
:10548800DA0306D400BE00BEFEE7DB6A9B07FAD546
:10549800F8E700BEF6E700BF00ED00E000F026BC2C
:1054A80000F02ABC2DE9F041CEB004464C22002180
:1054B8000AA80DF0E3FA2022002102A80DF0DEFA76
:1054C800BC2200211EA80DF0D9FA022004F016F81B
:1054D8002368012B4FF0000354D0534A022501934F
:1054E800C820D16A514B21F00101D162D26A02F081
:1054F800010201929A6942F440429A619B6903F45D
:1055080040430193019B494A93699B04FCD5484950
:105518000224002201268B6A04274FF0080823F092
:10552800030323438B62052316900AA818934FF4AC
:1055380080331096179419941597CDF86880CDE9A3
:105548001B222122CDE91344CDE90A2304F0C0FC33
:1055580000B1FEE73F220323294602A8CDE9022332
:1055680000220823CDE9042340224023CDE9062365
:1055780040234FF48062CDE9082304F0D7FF0346A7
:10558800B8B1FEE7294A04250093F0209169264B1B
:1055980041F440419161926902F440420092DA6A12
:1055A80042F00102DA62DB6A03F001030093009B18
:1055B800A9E720224FF4805125934FF440152B92F0
:1055C80080222D931EA83093269135914FF4807137
:1055D800249234920C223394439140F22711209262
:1055E8001022CDF884802A971F96CDE92E34CDE974
:1055F8003B334FF48033CDE9224631930024469360
:105608000623CDE93E4527934FF48063094C2C933C
:105618001E94CDE9281205F0E5F900B1FEE703F084
:1056280093FF4EB0BDE8F0810004005800480258CE
:10563800004402580F130F032DE9F0410D460446AC
:1056480084B0D1E9000184E8030000F013FBAE79CF
:10565800002E37D06F460BF04FF8FDF7DFFF0AF04A
:1056680095FBFFF77FFB2B79002B54D16B799BB10E
:10567800BFF34F8FBFF36F8F3C4B0022C3F850220C
:10568800BFF34F8FBFF36F8F5A6942F400325A61EC
:10569800BFF34F8FBFF36F8F4FF0FF32002300240B
:1056A80000253946324802928DF80C30CDE9004584
:1056B8000AF08CFF2E480AF0F1FF09F097FF04B0BA
:1056C800BDE8F08120466F46FFF7ECFE012401F0AB
:1056D80093F94FF040534FF4807838460193254BA7
:1056E800ADF80040CDE9023801F0A4F919224FF0D5
:1056F800404338468DF80F40ADF80D808DF80140D5
:105708008DF80A608DF80820019301F093F90420C0
:1057180001F080F99FE7154C0023C4F88430BFF3EB
:105728004F8FD4F8803043F6E07EC3F3C906C3F345
:105738004E334FEA431C0CEA0E00334640EA8372AC
:10574800013BC4F860225A1CF8D1ACF1200C1CF1C2
:10575800200FF0D1BFF34F8F636943F48033636147
:10576800BFF34F8FBFF36F8F80E700BF00ED00E0FE
:10577800F0D200240E00010305F008B81C4B9B680A
:1057880003F17842B2F5003F25D3B3F5803F20D32B
:1057980003F16042B2F5003F1FD303F15C42B2F55A
:1057A800002F1CD303F17042B2F5902F19D303F1E7
:1057B8004842B2F5803F16D303F18042B2F1806FC0
:1057C80013D303F1E043B3F5000F2CBF08200720E3
:1057D800704701207047002070470220704703205F
:1057E800704704207047052070470620704700BFA7
:1057F80000ED00E003480023034A044903600CF06D
:105808001DBA00BFF0D20024000000244553000850
:1058180010B4204C0022204B83B0D4F888101F48C5
:1058280041F47001C4F8881019681D4C41F0010159
:1058380019601A61196808401A4918609A61DA6192
:105848001A629A62DA621A635A639A63DA631A64AA
:105858005A64186820F4802018601A66D3F8DC208F
:1058680042F06042C3F8DC20D3F8DC300193019B9E
:1058780023681940B1F1005F03D20B4B0122C3F832
:105888000821044B4FF000629A6003B05DF8044BA6
:10589800704700BF00ED00E0004402587FEDF6EAD3
:1058A8000010005C0000FFFF0080005100F57171DE
:1058B800D0F8040409F028BAC1EBC10300EB830354
:1058C800D0F80404D3F8082209F04CBAC1EBC1039C
:1058D80000EB8303D0F804049A6C09F081BA00BF86
:1058E800D0F8040409F020BBC16810B5044619B10A
:1058F800022900D0FEE70121D4F8040409F0FEFAD9
:10590800D4F80404BDE8104009F0D0BA10B5044634
:10591800D0F8040409F0F6FA2268D2F8003E43F001
:105928000103C2F8003E236A23B1034A136943F016
:105938000603136110BD00BF00ED00E0D0F80404B9
:1059480009F0EABAD0F8040409F0FEBAD0F8040461
:1059580009F0F8BAD0F8040409F0F8BAD0F8040449
:1059680009F0F6BA9446D0F898021A4608B5634684
:1059780003F0B4FC032802D8024B185C08BD0220CF
:1059880008BD00BF3C2E0108D0F8980208B503F006
:1059980033FD032802D8024B185C08BD022008BD5D
:1059A8003C2E0108D0F8980208B503F069FD0328D9
:1059B80002D8024B185C08BD022008BD3C2E010825
:1059C8000A06D0F8983206D4C1EBC10103EB810175
:1059D80091F8FE01704701F07F01C1EBC10103EBB3
:1059E800810191F83E007047D0F8980208B503F09D
:1059F8005FFC032802D8024B185C08BD022008BDD2
:105A08003C2E0108D0F8980208B503F0CDFC032815
:105A180002D8024B185C08BD022008BD3C2E0108C4
:105A2800D0F8980208B503F097FC032802D8024B77
:105A3800185C08BD022008BD3C2E0108D0F8C00241
:105A480009F034BDD0F8C00209F048BDD0F8C00252
:105A580009F050BD704700BFD0F8C00209F036BD4C
:105A6800D0F8C00209F036BDD0F8D00308B502F06E
:105A78009BFD032802D8024B185C08BD022008BD14
:105A8800402E0108064B01EB410103EB8101D1F8DF
:105A980000C04A688B68C0F800C0426083607047E5
:105AA800442E010880ED000AC0ED010A80ED021ABB
:105AB800704700BF024B027853F82200704700BFBE
:105AC800C42E0108024B427833F81200704700BF19
